S01500005350495F554152545F746573742E7372656369
S2144000004806402005024000010240000102400030
S21440001001024000010240000102400000000000D2
S2144000200000000000000000000000000102400048
S21440003001024000000000000102400001024000B2
S214400040010240000102400001024000010240005F
S214400050010240000102400001024000010240004F
S2144000600102400000000000010240000102400082
S214400070010240000102400001024000010240002F
S214400080010240000102400001024000010240001F
S214400090010240000102400001024000010240000F
S2144000A001024000010240000102400001024000FF
S2144000B001024000010240000102400001024000EF
S2144000C001024000010240000102400001024000DF
S2144000D001024000010240000102400001024000CF
S2144000E001024000010240000102400001024000BF
S2144000F001024000010240000102400001024000AF
S214400100010240000102400001024000010240009E
S2144001100102400001024000000000000000000014
S214400120010240000102400001024000010240007E
S214400130010240000102400001024000010240006E
S214400140010240000102400001024000010240005E
S214400150010240000102400001024000010240004E
S214400160010240000102400010B5054C237833B927
S214400170044B13B10448AFF300800123237010BD35
S2144001800000402000000000E40C40000C4B43B14F
S2144001900C480D4910B5AFF300800C48036823B9EE
S2144001A010BD0A48036833B97047094B002BF7D097
S2144001B0BDE810401847064B002BF5D0184700BF47
S2144001C000000000E40C400004004020E40C400026
S2144001D00000000008B5014B984708BDC903400021
S2144001E04FF00072014B5A63704700BF00120E403A
S2144001F04FF00072014B1A63704700BF00120E406A
S214400200FEE7000008B5104B104A9A4209D00E4B44
S2144002100E4A03E011681960043304320C498B42DD
S214400220F8D30C4B02E000221A6004330A4A934289
S214400230F9D30A4A0A4B23F07F039360094B984749
S214400240094B9847FEE700BF00004020E40C400002
S21440025000004020000040204400402000ED00E028
S21440026000004000F50B4000C90B40001A4B1A6FC7
S21440027022F080621A675A6F42F080625A674FF0E7
S21440028080625A601A6F22F000621A675A6F42F014
S21440029000625A674FF000625A601A6F22F080720E
S2144002A01A675A6F42F080725A674FF080725A60EF
S2144002B04FF080521A60196F41F000711967596FFC
S2144002C021F0007159674FF0007159601A61196149
S2144002D019631A63704700BF00120E40054BD3F8EF
S2144002E0083113F4806F04D14FF48062014BC3F899
S2144002F00021704700060E4010B5084B9847084B43
S2144003009847084C01462046074B984707492046E1
S214400310074B9847074B984710BD00BFDD0240008B
S21440032061094000200040204D0440000080054008
S2144003306D0440006D02400008B50248024B9847E5
S21440034008BD00BF10E000E0190440000A4B1A6FD9
S21440035022F020021A675A6F42F020025A67202283
S2144003605A601A6F22F040021A675A6F42F04002F3
S2144003705A6740225A607047000E0E40044B9B69F5
S21440038013F4807F03D14FF48072014B1A6170479B
S21440039000060E4008B5064B9847064B984702465F
S2144003A005490648064B9847064B984708BD00BF88
S2144003B07D034000C50B4000000A0E403800402038
S2144003C0450640004D03400008B5074B9847074A8E
S2144003D0536843F400435360054B9847054B984792
S2144003E0054B984708BD00BF9D06400050180E407C
S2144003F0F90240003903400095034000EFF31083B4
S214400400036072B6BFF35F8F7047BFF35F8F0368BA
S21440041083F310887047000008B5024B1860024B03
S214400420984708BD1C0040207909400010B5044B91
S2144004301C68044B984701462046034B984710BD1E
S2144004401C004020930640008509400038B50D4604
S214400450044639220349003018BF0120024B984712
S214400460256038BD3C0C40008D06400038B504463B
S2144004700D46002818BF002914BF01200020402246
S21440048009490A4B9847204640F8045F2946084BDE
S2144004909847002807DB4FF40043A382054B2361AF
S2144004A0054BE360002038BD3C0C40008D06400004
S2144004B0B907400039054000FD04400030B585B01E
S2144004C005460C46002818BF002914BF012000200E
S2144004D0B3220749074B9847236801936368029302
S2144004E0A368039301A9281D034B984705B030BD68
S2144004F03C0C40008D0640006108400070B584B05A
S2144005000E4615460446A3220849003018BF01206F
S214400510074B9847002302930196039501A9A4F13F
S2144005200C00044B984704B070BD00BF3C0C400024
S2144005308D064000BD04400070B584B00E4615469A
S214400540044687220849003018BF0120074B9847C9
S214400550029600230193039501A9A4F10C00044BD5
S214400560984704B070BD00BF3C0C40008D0640006C
S214400570BD044000F8B5164605460F46002818BF8D
S214400580002902D00ABB002000E00020F1221049DA
S214400590104B984705F1080420460F4B9847002813
S2144005A0F8D00025795D20460C4B984720460A4BEC
S2144005B098470028FAD00135B542F3D32046084B79
S2144005C098470028FAD02846F8BD0120DEE700BF4D
S2144005D0580C40008D0640004D0B4000050B400077
S2144005E0750B40002DE9F041174605468846002821
S2144005F018BF002902D0D2B9002000E000204FF4F6
S21440060086720C490C4B9847002605F10804204694
S2144006100A4B98470028F8D02046094B984708F8D8
S21440062006000136BE42F0D33046BDE8F0810120D8
S214400630E5E700BF580C40008D0640009D0B40008B
S214400640290B400038B504460D46002818BF00293F
S21440065014BF0120002034220749084B98472946FA
S21440066004F10800064B9847034618B9054A6260ED
S214400670054A2260184638BD580C40008D0640009A
S214400680CD0A4000E50540007505400000B900BEB3
S21440069070474FF4967303FB00F0704700B583B085
S2144006A001A80E4B98470E4AD2F8883043F47003A0
S2144006B0C2F88830BFF34F8FBFF36F8F01A8094B46
S2144006C09847094A136823F4706343F4C063136081
S2144006D0064B984703B05DF804FB00BFFD0340009F
S2144006E000ED00E00B044000000C0E408D0740007B
S2144006F00E490A6A22F002020D4B13430B620B4B63
S2144007009B6E13F0010FFAD0084B196A094A0A4348
S2144007101A62996A084A0A409A62084A9A62034BE1
S2144007209B6E13F0020FFAD0704700BF00060E40D3
S214400730013E370000003701FFFF00F8013F182058
S214400740114A136B23F0700313630F4B9B6E13F029
S214400750080FFAD00C4A136B23F4407343F48073AB
S2144007601363094B9B6E13F0080FFAD0064A136BBF
S21440077023F0030343F002031363034B9B6E13F013
S214400780080FFAD0704700BF00060E4008B5024B6F
S2144007909847024B984708BDF10640004107400085
S2144007A0044B0344C3F30743052B01D00020704796
S2144007B0012070470080FFBF70B506460C460846CD
S2144007C0204B984700233BB300254FF49A721E49AE
S2144007D0002E18BF002C14BF012000201B4B98474A
S2144007E055B3236913F4803F29D1802323603460B6
S2144007F06A68174B13402360AB68164A1A40164B7C
S21440080013436360EB6823632B8AF380EB6803F043
S214400810F0033371002070BD03EB83018A000F495B
S2144008208A5C904202D00133DBB2CCE703EB83050F
S214400830AB000D461D44C8E76FF00C0070BD6FF06E
S214400840100070BDA1074000880C40008D06400097
S2144008507CFFFFFE6FFFF1FF10000E00740C40009F
S2144008602DE9F04186B007460D4604680B680193B3
S2144008704B68029300230393049303798DF8143056
S214400880261C18BF012640F23122334900280CBFEF
S214400890002006F00100314B9847236913F4803F4F
S2144008A022D16FF0130053E0002335E0507841EA40
S2144008B000210232019201330393E160D4F81080A4
S2144008C040F2222224493046244B984718F0080F1D
S2144008D038D06FF01200002836DB0398AB68984299
S2144008E002D3049A93422FD9236913F0010FDBD029
S2144008F0A3689BB2029A5AB1511C029113709DF89C
S2144009001420012A04D90A46013102911B0A1370A9
S214400910049B013304930123002BCFD1039B049AFD
S2144009209A42CBD3F988226912F0020FC6D0019AB8
S214400930002AC0D0511C019111789DF8140001285E
S214400940B4D8B8E70020C6E7236913F4007FFBD08D
S21440095006B0BDE8F08100BF880C40008D06400020
S21440096000207047034B6FF07F425A6005221A60A2
S214400970704700BF10E000E008B5014B984708BD3F
S21440098065094000080E0DE00D4B6FF07F40586043
S21440099098600B4B1B6813F4803FFAD001F17F41FF
S2144009A001311046431EDAB20028EDD1044B59609F
S2144009B09960034B1B6813F4803FFAD0704700BF22
S2144009C010E000E010B5044640F21922124900300B
S2144009D018BF0120114B9847114B9C4213D003F58A
S2144009E000739C4211D003F580539C420FD003F510
S2144009F000739C420DD003F500739C4201D0FF204B
S214400A0010BD042010BD002010BD012010BD0220E6
S214400A1010BD032010BD00BFAC0C40008D0640004A
S214400A2000080E4010B504464FF427720E490030B9
S214400A3018BF01200D4B984720460D4B9847002382
S214400A4043B140F2A62208490020084B98470023AD
S214400A50184610BD03EB43018A0006498A5C904263
S214400A60F6D00133DBB2EBE7AC0C40008D0640001D
S214400A70C5094000A00C400010B5044640F2B32221
S214400A800D49003018BF01200C4B984720460C4BB0
S214400A9098470C4BC4F8E430AC2323604FF4807383
S214400AA0236000EB40008200074B13445B686360A2
S214400AB0F4232362002010BDAC0C40008D0640009D
S214400AC0250A400000524155A00C4000F8B50C469F
S214400AD0094E0746A9223146003018BF0120074D6F
S214400AE0A847AA223146201C18BF0120A8473C60D0
S214400AF02046034B9847F8BDAC0C40008D0640009E
S214400B00790A400038B50C46054640F2951204492D
S214400B10003018BF0120034B98472B68DC6138BD76
S214400B20AC0C40008D06400010B5044640F2A712BB
S214400B300449003018BF0120034B98472368986942
S214400B40C0B210BDAC0C40008D06400010B5044647
S214400B504FF4D8720549003018BF0120044B98471F
S214400B6023685869C0F3400010BD00BFAC0C40007D
S214400B708D06400010B5044640F2B91205490030D3
S214400B8018BF0120044B984723685869C0F340209B
S214400B9010BD00BFAC0C40008D06400010B50446AA
S214400BA040F2CB120549003018BF0120044B98474D
S214400BB02368586900F0010010BD00BFAC0C40002F
S214400BC08D0640000020704710B5064B9847064BF0
S214400BD098470120054CA047054B98476420A047FE
S214400BE0F5E700BFD5014000E10140002D0440007C
S214400BF0F101400070B50D4E0D4CA41BA41000250D
S214400C00A54209D10B4E0C4C00F05CF8A41BA41076
S214400C100025A54205D170BD56F8253098470135C8
S214400C20EEE756F8253098470135F2E7D00C4000FD
S214400C30D00C4000D00C4000D40C40002E2E2F6824
S214400C40616C2F7372632F68616C5F7370695F6D40
S214400C505F73796E632E63002E2E2F68616C2F7340
S214400C6072632F68616C5F75736172745F73796EBF
S214400C70632E6300010000000000008001000000B9
S214400C8002DC9604FFFF00002E2E2F68706C2F7338
S214400C9070692F68706C5F7370692E630000000087
S214400CA00100000000080000F40000002E2E2F680F
S214400CB0706C2F756172742F68706C5F756172749A
S214400CC02E630000F8B500BFF8BC08BC9E467047CF
S214400CD08D014000F8B500BFF8BC08BC9E46704782
S208400CE06901400021
S804400000BB
