:020000040040BA
:10000000B806402001034000FD024000FD02400010
:10001000FD024000FD024000FD0240000000000023
:10002000000000000000000000000000FD02400091
:10003000FD02400000000000FD024000FD02400003
:10004000FD024000FD024000FD024000FD024000B4
:10005000FD024000FD024000FD024000FD024000A4
:10006000FD02400000000000FD024000FD024000D3
:10007000FD024000FD024000FD024000FD02400084
:10008000FD024000FD024000FD024000FD02400074
:10009000FD024000FD024000FD024000FD02400064
:1000A000FD024000FD024000FD024000FD02400054
:1000B000FD024000FD024000FD024000FD02400044
:1000C000FD024000FD024000FD024000FD02400034
:1000D000FD024000FD024000FD024000FD02400024
:1000E000FD024000FD024000FD024000FD02400014
:1000F000FD024000FD024000FD024000FD02400004
:10010000FD024000FD024000FD024000FD024000F3
:10011000FD024000FD024000000000000000000061
:10012000FD024000FD024000FD024000FD024000D3
:10013000FD024000FD024000FD024000FD024000C3
:10014000FD024000FD024000FD024000FD024000B3
:10015000FD024000FD024000FD024000FD024000A3
:10016000FD024000FD02400010B5054C237833B974
:10017000044B13B10448AFF300800123237010BD7A
:100180006400402000000000041940000C4B43B103
:100190000C480D4910B5AFF300800C48036823B933
:1001A00010BD0A48036833B97047094B002BF7D0DC
:1001B000BDE810401847064B002BF5D0184700BF8C
:1001C00000000000041940006800402004194000AD
:1001D0000000000008B5014B984708BDB504400079
:1001E00070B586B0054600240094019402940394EF
:1001F0000494059401214FF438702A4B984740F23B
:100200004C40294B98470123062269460420274E7B
:10021000B047234607E006AA02EB430232F8182C47
:1002200025F813200133022BF5DD01230622694650
:1002300010461E4CA047002308E0DA1C06A901EB7B
:10024000430131F8181C25F812100133022BF4DD9C
:100250000123062269460820144CA047002308E029
:100260009A1D06A901EB430131F8181C25F812105C
:100270000133022BF4DD0123062269460A200B4CD0
:10028000A047002309E003F1090206A901EB43019D
:1002900031F8181C25F812100133022BF3DD06B0DB
:1002A00070BD00BF351040001905400085104000AA
:1002B00008B54FF00072034B5A630A20024B98476F
:1002C00008BD00BF00120E40190540004FF000723B
:1002D000014B1A63704700BF00120E4008B5044B73
:1002E0009847044B98474FF4C870034B984708BD94
:1002F000B1024000CD02400019054000FEE70000B9
:1003000008B5104B104A9A4209D00E4B0E4A03E032
:1003100011681960043304320C498B42F8D30C4B3A
:1003200002E000221A6004330A4A9342F9D30A4ACF
:100330000A4B23F07F039360094B9847094B98477A
:10034000FEE700BF00004020041940006400402088
:1003500064004020B800402000ED00E000004000B4
:10036000DD11400031114000164B1A6F22F08062FF
:100370001A675A6F42F080625A674FF080625A6083
:100380001A6F22F000621A675A6F42F000625A67D1
:100390004FF000625A601A6F22F080721A675A6F2B
:1003A00042F080725A674FF080725A604FF080526C
:1003B0001A604FF0007119601A61196119631A63AC
:1003C000704700BF00120E40054BD3F8083113F4FC
:1003D000806F04D14FF48062014BC3F80021704755
:1003E00000060E4010B5084B9847084B9847084C3C
:1003F00001462046074B984707492046074B984738
:10040000074B984710BD00BFC9034000E10C4000F6
:1004100090004020690540000080054089054000AB
:100420006903400008B50248024B984708BD00BF69
:1004300010E000E0050540000A4B1A6F22F0200290
:100440001A675A6F42F020025A6720225A601A6FC8
:1004500022F040021A675A6F42F040025A67402267
:100460005A607047000E0E40044B9B6913F4807F66
:1004700003D14FF48072014B1A61704700060E40A1
:1004800008B5064B9847064B98470246054906486B
:10049000064B9847064B984708BD00BF69044000CB
:1004A000790F4000000A0E40A800402039084000A3
:1004B0003904400008B5074B9847074A536843F48E
:1004C00000435360054B9847054B9847054B9847A9
:1004D00008BD00BF0D09400050180E40E503400064
:1004E0002504400081044000EFF31083036072B6DE
:1004F000BFF35F8F7047BFF35F8F036883F310888C
:100500007047000008B5024B1860024B984708BDC1
:1005100080004020F90C400010B5044B1C68044BCF
:10052000984701462046034B984710BD8000402065
:1005300001094000050D400070B5164604460D4601
:10054000002818BF002914BF0120002034220449CC
:10055000044B98472368324629462046984770BD89
:10056000E8134000D508400038B50D46044639224E
:100570000349003018BF0120024B9847256038BD61
:10058000FC134000D508400038B504460D4600284D
:1005900018BF002914BF01200020402209490A4B3E
:1005A0009847204640F8045F2946084B98470028A2
:1005B00007DB4FF40043A382054B2361054BE36047
:1005C000002038BDFC134000D5084000690A4000F7
:1005D00001074000C506400010B5044657220549F2
:1005E000003018BF0120044B9847201D034B98474B
:1005F00010BD00BFFC134000D5084000110B4000A7
:1006000038B50D46044663220549003018BF012065
:10061000044B98472946201D034B984738BD00BF1F
:10062000FC134000D5084000450B400038B50D468E
:1006300004466F220549003018BF0120044B98473B
:100640002946201D034B984738BD00BFFC134000CE
:10065000D5084000A90B400038B50D460446752268
:100660000549003018BF0120044B98472946201D3A
:10067000034B984738BD00BFFC134000D50840002D
:100680007D0B400030B585B005460C46002818BFEC
:10069000002914BF01200020B3220749074B9847C7
:1006A0002368019363680293A368039301A9281D3B
:1006B000034B984705B030BDFC134000D5084000FF
:1006C000E10B400070B584B00E4615460446A322E7
:1006D0000849003018BF0120074B984700230293B8
:1006E0000196039501A9A4F10C00044B984704B0AE
:1006F00070BD00BFFC134000D508400085064000D7
:1007000070B584B00E46154604468722084900306D
:1007100018BF0120074B98470296002301930395C9
:1007200001A9A4F10C00044B984704B070BD00BFB0
:10073000FC134000D50840008506400038B504464B
:100740000D46002818BF002914BF01200020BD223B
:100750000349044B98470C342C60002038BD00BF7F
:10076000FC134000D5084000F8B5164605460F4674
:10077000002818BF002902D00ABB002000E000209A
:10078000F1221049104B984705F1080420460F4B01
:1007900098470028F8D00025795D20460C4B9847F3
:1007A00020460A4B98470028FAD00135B542F3D3CA
:1007B0002046084B98470028FAD02846F8BD01206B
:1007C000DEE700BF18144000D5084000010F4000CC
:1007D000B90E4000290F40002DE9F04117460546AB
:1007E0008846002818BF002902D0D2B9002000E0B6
:1007F00000204FF486720C490C4B9847002605F1F7
:10080000080420460A4B98470028F8D02046094B98
:10081000984708F806000136BE42F0D33046BDE8DE
:10082000F0810120E5E700BF18144000D508400022
:10083000510F4000DD0E400038B504460D4600283B
:1008400018BF002914BF0120002034220749084B9B
:100850009847294604F10800064B9847034618B903
:10086000054A6260054A2260184638BD18144000E7
:10087000D50840004D0E4000D907400069074000F0
:1008800010B5044653220649003018BF0120054B1D
:10089000984704F10800044B9847002010BD00BFA2
:1008A00018144000D5084000850E400038B50546B4
:1008B0000C46002818BF002914BF0120002069221F
:1008C0000249034B98472560002038BD18144000AA
:1008D000D508400000B900BE704700000346064A34
:1008E000126822B1044A1068034413607047034938
:1008F000014A1160F6E700BF84004020B80640209E
:100900004FF4967303FB00F07047000000B583B00E
:1009100001A80E4B98470E4AD2F8883043F4700372
:10092000C2F88830BFF34F8FBFF36F8F01A8094B18
:100930009847094A136823F4706343F4C063136053
:10094000064B984703B05DF804FB00BFE904400084
:1009500000ED00E0F7044000000C0E40FD094000EF
:100960000E490A6A22F002020D4B13430B620B4B35
:100970009B6E13F0010FFAD0084B196A094A0A431B
:100980001A62996A084A0A409A62084A9A62034BB4
:100990009B6E13F0020FFAD0704700BF00060E40A6
:1009A000013E370000003701FFFF00F8013F18202B
:1009B000114A136B23F0700313630F4B9B6E13F0FC
:1009C000080FFAD00C4A136B23F4407343F480737E
:1009D0001363094B9B6E13F0080FFAD0064A136B92
:1009E00023F0030343F002031363034B9B6E13F0E6
:1009F000080FFAD0704700BF00060E4008B5024B42
:100A00009847024B984708BD61094000B109400072
:100A10000123036000207047036B23F47F43090226
:100A200089B20B4303630020704710B4036B23F0BB
:100A3000F0030C01E4B22343036329B102231370D2
:100A400000205DF8044B704701231370F8E70000A5
:100A5000044B0344C3F30743052B01D00020704728
:100A6000012070470080FFBF70B506460C4608465F
:100A7000204B984700233BB300254FF49A721E4940
:100A8000002E18BF002C14BF012000201B4B9847DC
:100A900055B3236913F4803F29D180232360346048
:100AA0006A68174B13402360AB68164A1A40164B0E
:100AB00013436360EB6823632B8AF380EB6803F0D6
:100AC000F0033371002070BD03EB83018A000F49EE
:100AD0008A5C904202D00133DBB2CCE703EB8305A2
:100AE000AB000D461D44C8E76FF00C0070BD6FF001
:100AF000100070BD510A400048144000D508400065
:100B00007CFFFFFE6FFFF1FF10000E003414400069
:100B100010B5044668B103684BB101204FF4B972B7
:100B20000549064B98472068054B984710BD0020A3
:100B3000F4E70020F2E700BF48144000D508400069
:100B4000110A400038B50D46044670B1036853B130
:100B5000012040F2AF120649064B9847294620680B
:100B6000054B984738BD0020F3E70020F1E700BFB0
:100B700048144000D5084000190A400008B560B18B
:100B8000036843B1012040F2BD120549054B984767
:100B90006FF01A0008BD0020F5E70020F3E700BF62
:100BA00048144000D508400038B50D46044678B1D9
:100BB00003685BB1012040F2CD120649064B98470D
:100BC000221D29462068054B984738BD0020F2E7D2
:100BD0000020F0E748144000D50840002B0A4000F0
:100BE0002DE9F04186B007460D4604680B68019375
:100BF0004B68029300230393049303798DF8143018
:100C0000261C18BF012640F23122334900280CBFB0
:100C1000002006F00100314B9847236913F4803F10
:100C200022D16FF0130053E0002335E0507841EA01
:100C300000210232019201330393E160D4F8108065
:100C400040F2222224493046244B984718F0080FDE
:100C500038D06FF01200002836DB0398AB6898425A
:100C600002D3049A93422FD9236913F0010FDBD0EA
:100C7000A3689BB2029A5AB1511C029113709DF85D
:100C80001420012A04D90A46013102911B0A13706B
:100C9000049B013304930123002BCFD1039B049ABF
:100CA0009A42CBD3F988226912F0020FC6D0019A7A
:100CB000002AC0D0511C019111789DF81400012820
:100CC000B4D8B8E70020C6E7236913F4007FFBD04F
:100CD00006B0BDE8F08100BF48144000D5084000D0
:100CE00000207047034B6FF07F425A6005221A6064
:100CF000704700BF10E000E008B5014B984708BD01
:100D0000E50C4000080E0DE00D4B6FF07F40586081
:100D100098600B4B1B6813F4803FFAD001F17F41C0
:100D200001311046431EDAB20028EDD1044B596060
:100D30009960034B1B6813F4803FFAD0704700BFE3
:100D400010E000E010B5044640F2192212490030CC
:100D500018BF0120114B9847114B9C4213D003F54B
:100D600000739C4211D003F580539C420FD003F5D1
:100D700000739C420DD003F500739C4201D0FF200C
:100D800010BD042010BD002010BD012010BD0220A8
:100D900010BD032010BD00BF6C144000D5084000FA
:100DA00000080E4010B504464FF427720E4900307B
:100DB00018BF01200D4B984720460D4B9847002344
:100DC00043B140F2A62208490020084B984700236F
:100DD000184610BD03EB43018A0006498A5C904225
:100DE000F6D00133DBB2EBE76C144000D5084000CD
:100DF000450D40006014400010B5044640F2B32297
:100E00000D49003018BF01200C4B984720460C4B71
:100E100098470C4BC4F8E430AC2323604FF4807344
:100E2000236000EB40008200074B13445B68636063
:100E3000F4232362002010BD6C144000D50840004C
:100E4000A50D40000052415560144000F8B50C4615
:100E5000094E0746A9223146003018BF0120074D30
:100E6000A847AA223146201C18BF0120A8473C6091
:100E70002046034B9847F8BD6C144000D50840004D
:100E8000F90D400070B50A4E0446F222314600309A
:100E900018BF0120074DA847246840F2D7223146E9
:100EA000201C18BF0120A8475023236070BD00BF3D
:100EB0006C144000D508400038B50C46054640F299
:100EC00095120449003018BF0120034B98472B6846
:100ED000DC6138BD6C144000D508400010B50446F4
:100EE00040F2A7120449003018BF0120034B984775
:100EF00023689869C0B210BD6C144000D50840004A
:100F000010B504464FF4D8720549003018BF0120CF
:100F1000044B984723685869C0F3400010BD00BFD8
:100F20006C144000D508400010B5044640F2B912D8
:100F30000549003018BF0120044B984723685869C1
:100F4000C0F3402010BD00BF6C144000D508400025
:100F500010B5044640F2CB120549003018BF0120FD
:100F6000044B98472368586900F0010010BD00BF8A
:100F70006C144000D50840000020704730B583B0A5
:100F800004460D4601A90548054B9847AAB22146DB
:100F90000198044B984703B030BD00BF900040203B
:100FA0003D07400039054000F0B585B007460D46C5
:100FB0000E4C03A920460E4B984720460D4B9847F0
:100FC00028460D4B984706462A46FF210B4B98476B
:100FD0000295019704A941F8106D2046084B9847E7
:100FE0003046084B984705B0F0BD00BF9000402048
:100FF0003D074000D9054000251240005B1240002B
:10100000850640003512400030B40022102409E06B
:10101000835C83EAD413DBB2054D55F8233083EAB1
:10102000042401328A42F3DB600080B230BC704796
:101030008414400010B582B00C46030A8DF80430C9
:101040008DF80500022101A80A4B9847030A8DF884
:1010500006308DF807003CB904210DEB0100064B6A
:10106000984724B902B010BD044B9847F4E7044BED
:101070009847F7E7091040007D0F4000B10240009B
:10108000CD0240002DE9F8438146884616461F46AA
:10109000951C2846104B984704462A4600210F4BC2
:1010A000984797B9002148460D4B98472946204656
:1010B0000C4B984767B93246214640460A4B984741
:1010C00020460A4B9847BDE8F883094B9847E9E763
:1010D000084B9847EFE700BF251240005B12400025
:1010E00035104000A90F4000451240003512400065
:1010F000B1024000CD02400070B582B005460E46F8
:10110000074C01A92046074B98472046064B9847B5
:10111000B2B229460198054B984702B070BD00BF96
:10112000A8004020AD08400081084000390540007B
:1011300030B589B01F4B98471F4C20461F4B98472E
:10114000002120461E4B9847002120461D4B984702
:101150001D4920461D4B9847002302930393049397
:101160000593069307934AF6AA23ADF8043019E0D5
:1011700008AB03EB440333F8183C1A0A8DF8072038
:101180008DF8063001210DF10700114DA84701210E
:101190000DF10600A84701340B2CE9DD022101A85E
:1011A0000B4B98470B4B984702A80B4B98470024D2
:1011B000F2E700BFD501400090004020D905400073
:1011C000590640002D064000A0860100010640009F
:1011D000F9104000DD024000E101400070B50D4E05
:1011E0000D4CA41BA4100025A54209D10B4E0C4C9C
:1011F00000F078FBA41BA4100025A54205D170BD0A
:1012000056F8253098470135EEE756F825309847CF
:101210000135F2E7F0184000F0184000F0184000E7
:10122000F4184000024B0146186800F06DB800BF8A
:1012300000004020024B0146186800F017B800BFBC
:101240000000402010B5431E0A44914200D110BD59
:1012500011F8014B03F8014FF7E7024403469342AC
:1012600000D1704703F8011BF9E7000038B50546C7
:10127000002945D051F8043C0C1F002BB8BFE418DE
:1012800000F0B0F81F4A1368104633B96360146069
:101290002846BDE8384000F0A6B8A3420CD9216822
:1012A0006218934204BF1A685B68636004BF5218F7
:1012B00022600460ECE713465A680AB1A242FAD9E8
:1012C00019685818A0420BD120680144581882426E
:1012D0001960DDD1106852685A6001441960D7E77F
:1012E00002D90C232B60D3E7206821188A4204BF5F
:1012F00011685268626004BF091821605C60C7E72A
:1013000038BD00BF8800402070B5CD1C25F0030516
:1013100008350C2D38BF0C25002D064601DBA942EF
:1013200003D90C233360002070BD00F05BF8234A22
:101330001468214691B9224C23681BB9304600F04D
:1013400041F820602946304600F03CF8431C26D185
:101350000C233360304600F046F8E4E70B685B1B73
:101360001AD40B2B0FD90B60CD50CC18304600F09F
:101370003AF804F10B00231D20F00700C31A1BD01C
:101380005A42E25070BD8C420DBF63684B68636087
:10139000136018BF0C46E9E70C464968CAE7C41C4D
:1013A00024F00304A04205D0211A304600F00AF8C8
:1013B0000130CDD02560D9E770BD00BF8800402046
:1013C0008C00402038B5064C0023054608462360B3
:1013D000FFF784FA431C02D1236803B12B6038BDA8
:1013E000B4004020704770472E2E2F68616C2F7319
:1013F00072632F68616C5F696F2E63002E2E2F68F9
:10140000616C2F7372632F68616C5F7370695F6DBD
:101410005F73796E632E63002E2E2F68616C2F73BD
:1014200072632F68616C5F75736172745F73796E3C
:10143000632E630001000000000000800100000036
:1014400002DC9604FFFF00002E2E2F68706C2F73B5
:1014500070692F68706C5F7370692E630000000004
:101460000100000000080000F40000002E2E2F688C
:10147000706C2F756172742F68706C5F7561727417
:101480002E6300000000000099C50000ABCE0000F4
:10149000320B0000CFD80000561D0000641600007B
:1014A000FDD3000007F400009E310000AC3A0000BC
:1014B00035FF0000C82C000051E9000063E2000085
:1014C000FA27000097AD00000E6800003C630000A2
:1014D000A5A6000058750000C1B00000F3BB0000D5
:1014E0006A7E000090590000099C00003B970000B4
:1014F000A25200005F810000C6440000F44F0000CB
:101500006D8A00002E5B0000B79E000085950000EC
:101510001C500000E1830000784600004A4D0000A6
:10152000D388000029AF0000B06A0000826100008B
:101530001BA40000E67700007FB200004DB9000058
:10154000D47C0000B9F600002033000012380000FF
:101550008BFD0000762E0000EFEB0000DDE00000C8
:1015600044250000BE02000027C7000015CC000083
:101570008C09000071DA0000E81F0000DA14000096
:1015800043D10000C5F300005C3600006E3D000052
:10159000F7F800000A2B000093EE0000A1E5000020
:1015A00038200000C20700005BC2000069C90000CB
:1015B000F00C00000DDF0000941A0000A6110000DE
:1015C0003FD40000525E0000CB9B0000F990000069
:1015D000605500009D86000004430000364800006E
:1015E000AF8D000055AA0000CC6F0000FE64000023
:1015F00067A100009A72000003B7000031BC000030
:10160000A8790000EBA80000726D000040660000A1
:10161000D9A3000024700000BDB500008FBE0000FB
:10162000167B0000EC5C00007599000047920000FA
:10163000DE57000023840000BA410000884A000001
:10164000118F00007C050000E5C00000D7CB000032
:101650004E0E0000B3DD00002A1800001813000031
:1016600081D600007BF10000E2340000D03F000092
:1016700049FA0000B42900002DEC00001FE700002B
:101680008622000013A200008A670000B86C0000E8
:1016900021A90000DC7A000045BF000077B40000FB
:1016A000EE710000145600008D930000BF980000FA
:1016B000265D0000DB8E0000424B00007040000001
:1016C000E9850000840F00001DCA00002FC1000042
:1016D000B60400004BD70000D2120000E019000051
:1016E00079DC000083FB00001A3E00002835000072
:1016F000B1F000004C230000D5E60000E7ED00004B
:101700007E2800003DF90000A43C00009637000050
:101710000FF20000F22100006BE4000059EF00001E
:10172000C02A00003A0D0000A3C8000091C30000C9
:1017300008060000F5D500006C1000005E1B0000DC
:10174000C7DE0000AA54000033910000019A000097
:10175000985F0000658C0000FC490000CE4200004C
:1017600057870000ADA0000034650000066E000041
:101770009FAB000062780000FBBD0000C9B600000E
:1017800050730000D65100004F9400007D9F000070
:10179000E45A000019890000804C0000B2470000A4
:1017A0002B820000D1A50000486000007A6B000089
:1017B000E3AE00001E7D000087B80000B5B3000056
:1017C0002C76000041FC0000D8390000EA3200000D
:1017D00073F700008E24000017E1000025EA0000E6
:1017E000BC2F000046080000DFCD0000EDC6000061
:1017F0007403000089D0000010150000221E0000B4
:10180000BBDB0000F80A000061CF000053C40000F9
:10181000CA01000037D20000AE1700009C1C000077
:1018200005D90000FFFE0000663B000054300000B8
:10183000CDF5000030260000A9E300009BE8000081
:10184000022D00006FA70000F6620000C4690000CE
:101850005DAC0000A07F000039BA00000BB10000B1
:101860009274000068530000F1960000C39D0000D0
:101870005A580000A78B00003E4E00000C450000A7
:101880009580000000000000000000000000000043
:101890000000000000000000000000000000000048
:1018A0000000000000000000000000000000000038
:1018B0000000000000000000000000000000000028
:1018C0000000000000000000000000000000000018
:1018D0000000000000000000000000000000000008
:1018E00000000000F8B500BFF8BC08BC9E46704779
:1018F0008D014000F8B500BFF8BC08BC9E4670479B
:041900006901400039
:101904000400402000000000A4184000C418400057
:1019140084184000000000000000000000000000E7
:1019240000000000000000000000000000000000B3
:1019340000000000000000000000000000000000A3
:101944000000000000000000000000000000000093
:101954000000000000000000000000000000000083
:04196400000000007F
:0400000500400000B7
:00000001FF
