:020000040040BA
:1000000048064020910440008D0440008D044000CB
:100010008D0440008D0440008D044000000000006D
:100020000000000000000000000000008D044000FF
:100030008D044000000000008D0440008D0440004D
:100040008D0440008D0440008D0440008D0440006C
:100050008D0440008D0440008D0440008D0440005C
:100060008D044000000000008D0440008D0440001D
:100070008D0440008D0440008D0440008D0440003C
:100080008D0440008D0440008D0440008D0440002C
:100090008D0440008D0440008D0440008D0440001C
:1000A0008D0440008D0440008D0440008D0440000C
:1000B0008D0440008D0440008D0440008D044000FC
:1000C0008D0440008D0440008D0440008D044000EC
:1000D0008D0440008D0440008D0440008D044000DC
:1000E0008D0440008D0440008D0440008D044000CC
:1000F0008D0440008D0440008D0440008D044000BC
:100100008D0440008D0440008D0440008D044000AB
:100110008D0440008D04400000000000000000003D
:100120008D0440008D0440008D0440008D0440008B
:100130008D0440008D0440008D0440008D0440007B
:100140008D0440008D0440008D0440008D0440006B
:100150008D0440008D0440008D0440008D0440005B
:100160008D0440008D04400010B5054C237833B950
:10017000044B13B10448AFF300800123237010BD7A
:100180000000402000000000701540000C4B43B1FF
:100190000C480D4910B5AFF300800C48036823B933
:1001A00010BD0A48036833B97047094B002BF7D0DC
:1001B000BDE810401847064B002BF5D0184700BF8C
:1001C0000000000070154000040040207015400041
:1001D0000000000008B5014B984708BD45064000E7
:1001E00030B40022102409E0835C83EAD413DBB22C
:1001F000054D55F8233083EA042401328A42F3DBAB
:10020000600080B230BC7047A810400010B51446A2
:10021000044B9847A04201D1002010BD4FF0FF30A1
:1002200010BD00BFE1014000F0B585B006460D46A7
:1002300017460C4C03A920460B4B984720460B4B06
:10024000984702950197002407E0331904A941F863
:10025000103D0448064B98470134AC42F5DB05B02D
:10026000F0BD00BF20004020690840008907400021
:10027000B10740004FF00072014B5A63704700BF56
:1002800000120E404FF00072014B1A63704700BF1E
:1002900000120E4008B5044B9847044B98474FF4A2
:1002A000C870034B984708BD7502400085024000A6
:1002B000A906400000B583B0030A8DF804308DF81C
:1002C0000500022101A80B4B9847030A8DF8063060
:1002D0008DF80700084B9847084B984700220421E7
:1002E0000DEB0100064B9847064B9847002003B0E2
:1002F0005DF804FBE10140009502400075024000FA
:10030000290240008502400008B54FF45870014BA7
:10031000984708BDB502400070B582B00E4615463C
:10032000030A8DF804308DF80500022101A81A4B4C
:100330009847030A8DF806308DF80700174B984749
:10034000174B9847002204210DEB0100154CA047E4
:100350002A4631460020A0476A4602210020A047D5
:100360009DF800209DF8013043EA022231462846DC
:100370000D4B9847002806DB01240C4B984724B10D
:10038000002002B070BD0024F7E704210848094BA3
:1003900098474FF0FF30F4E7E1014000950240003C
:1003A00075024000290240000D0240008502400015
:1003B000A8144000C10F400010B582B004466A4640
:1003C00006210420304B984700223AB36A460621A2
:1003D00008462D4B98470022002A30D06A46062155
:1003E0000820294B98470022002A39D06A46062166
:1003F0000846254B98470022002A43D002B010BD82
:1004000002A901EB430131F8081C24F81310013351
:100410009BB2022BF4D9013292B2D6E71346F8E729
:10042000D91C02A800EB430030F8080C24F8110096
:1004300001339BB2022BF3D9013292B2CCE71346BF
:10044000F8E7991D02A800EB430030F8080C24F8E7
:10045000110001339BB2022BF3D9013292B2C3E7F0
:100460001346F8E703F1090102A800EB430030F856
:10047000080C24F8110001339BB2022BF2D901328F
:1004800092B2B9E71346F8E719034000FEE700000F
:1004900008B5104B104A9A4209D00E4B0E4A03E0A1
:1004A00011681960043304320C498B42F8D30C4BA9
:1004B00002E000221A6004330A4A9342F9D30A4A3E
:1004C0000A4B23F07F039360094B9847094B9847E9
:1004D000FEE700BF000040207015400000004020F3
:1004E000000040204400402000ED00E000004000FB
:1004F00061104000F90F4000164B1A6F22F0806225
:100500001A675A6F42F080625A674FF080625A60F1
:100510001A6F22F000621A675A6F42F000625A673F
:100520004FF000625A601A6F22F080721A675A6F99
:1005300042F080725A674FF080725A604FF08051DB
:10054000196019614FF000721A6319631A611A6019
:10055000704700BF00120E40054BD3F8083113F46A
:10056000806F04D14FF48062014BC3F800217047C3
:1005700000060E4010B5084B9847084B9847084CAA
:1005800001462046074B984707492046074B9847A6
:10059000074B984710BD00BF59054000250D40008E
:1005A0002000402019074000008005403907400026
:1005B000F904400008B50248024B984708BD00BF47
:1005C00010E000E0950640000A4B1A6F22F020026E
:1005D0001A675A6F42F020025A6720225A601A6F37
:1005E00022F040021A675A6F42F040025A674022D6
:1005F0005A607047000E0E40044B9B6913F4807FD5
:1006000003D14FF48072014B1A61704700060E400F
:1006100008B5064B9847064B9847024605490648D9
:10062000064B9847064B984708BD00BFF9054000A8
:10063000BD0F4000000A0E40380040206509400010
:10064000C905400008B5074B9847074A536843F46B
:1006500000435360054B9847054B9847054B984717
:1006600008BD00BF250A400050180E407505400027
:10067000B505400011064000EFF31083036072B629
:10068000BFF35F8F7047BFF35F8F036883F31088FA
:100690007047000008B5024B1860024B984708BD30
:1006A0001C0040203D0D400010B5044B1C68044B5D
:1006B000984701462046034B984710BD1C00402038
:1006C000070A4000490D400010B5044B1C68044B5C
:1006D000984701462046034B984710BD1C00402018
:1006E000110A4000490D400070B5164604460D46FB
:1006F000002818BF002914BF01200020342204491B
:10070000044B98472368324629462046984770BDD7
:10071000B0144000010A400038B50D4604463922A5
:100720000349003018BF0120024B9847256038BDAF
:10073000C4144000010A400038B504460D460028A4
:1007400018BF002914BF01200020402209490A4B8C
:100750009847204640F8045F2946084B98470028F0
:1007600007DB4FF40043A382054B2361054BE36095
:10077000002038BDC4144000010A4000490B40006D
:100780002D084000F107400010B5044657220549E6
:10079000003018BF0120044B9847201D034B984799
:1007A00010BD00BFC4144000010A4000F10B40001E
:1007B00030B585B005460C46002818BF002914BF87
:1007C00001200020B3220749074B98472368019373
:1007D00063680293A368039301A9281D034B9847FC
:1007E00005B030BDC4144000010A4000250C400093
:1007F00070B584B00E4615460446A3220849003061
:1008000018BF0120074B98470023029301960395D8
:1008100001A9A4F10C00044B984704B070BD00BFBF
:10082000C4144000010A4000B107400070B584B014
:100830000E461546044687220849003018BF01209D
:10084000074B9847029600230193039501A9A4F151
:100850000C00044B984704B070BD00BFC4144000A6
:10086000010A4000B107400038B504460D46002893
:1008700018BF002914BF01200020BD220349044BEA
:1008800098470C342C60002038BD00BFC4144000D1
:10089000010A4000F8B5164605460F46002818BF65
:1008A000002902D00ABB002000E00020F1221049FC
:1008B000104B984705F1080420460F4B9847002835
:1008C000F8D00025795D20460C4B984720460A4B0E
:1008D00098470028FAD00135B542F3D32046084B9B
:1008E00098470028FAD02846F8BD0120DEE700BF6F
:1008F000E0144000010A4000450F4000FD0E40009A
:100900006D0F40002DE9F041174605468846002846
:1009100018BF002902D0D2B9002000E000204FF417
:1009200086720C490C4B9847002605F108042046B6
:100930000A4B98470028F8D02046094B984708F8FA
:1009400006000136BE42F0D33046BDE8F0810120FA
:10095000E5E700BFE0144000010A4000950F4000A9
:10096000210F400038B504460D46002818BF002965
:1009700014BF0120002034220749084B984729461C
:1009800004F10800064B9847034618B9054A62600F
:10099000054A2260184638BDE0144000010A4000B4
:1009A000910E4000050940009508400010B504462E
:1009B00053220649003018BF0120054B984704F127
:1009C0000800044B9847002010BD00BFE014400011
:1009D000010A4000C90E400038B505460C46002803
:1009E00018BF002914BF0120002069220249034BCF
:1009F00098472560002038BDE0144000010A4000FF
:100A000000B900BE70474FF4967303FB00F07047C7
:100A10004FF4967303FB00F04FF47A7303FB00F07E
:100A20007047000000B583B001A80E4B98470E4AEE
:100A3000D2F8883043F47003C2F88830BFF34F8F88
:100A4000BFF36F8F01A8094B9847094A136823F435
:100A5000706343F4C0631360064B984703B05DF8BE
:100A600004FB00BF7906400000ED00E0870640006F
:100A7000000C0E40150B40000E490A6A22F00202DB
:100A80000D4B13430B620B4B9B6E13F0010FFAD00F
:100A9000084B196A094A0A431A62996A084A0A40C5
:100AA0009A62084A9A62034B9B6E13F0020FFAD0C7
:100AB000704700BF00060E40013E370000003701BE
:100AC000FFFF00F8013F1820114A136B23F0700359
:100AD00013630F4B9B6E13F0080FFAD00C4A136B85
:100AE00023F4407343F480731363094B9B6E13F03C
:100AF000080FFAD0064A136B23F0030343F00203F6
:100B00001363034B9B6E13F0080FFAD0704700BFBE
:100B100000060E4008B5024B9847024B984708BDA7
:100B2000790A4000C90A4000012303600020704791
:100B3000044B0344C3F30743052B01D00020704747
:100B4000012070470080FFBF70B506460C4608467E
:100B5000204B984700233BB300254FF49A721E495F
:100B6000002E18BF002C14BF012000201B4B9847FB
:100B700055B3236913F4803F29D180232360346067
:100B80006A68174B13402360AB68164A1A40164B2D
:100B900013436360EB6823632B8AF380EB6803F0F5
:100BA000F0033371002070BD03EB83018A000F490D
:100BB0008A5C904202D00133DBB2CCE703EB8305C1
:100BC000AB000D461D44C8E76FF00C0070BD6FF020
:100BD000100070BD310B400010154000010A4000AC
:100BE0007CFFFFFE6FFFF1FF10000E00FC144000C1
:100BF00010B5044668B103684BB101204FF4B972D7
:100C00000549064B98472068054B984710BD0020C2
:100C1000F4E70020F2E700BF10154000010A400091
:100C2000290B40002DE9F04186B007460D460468C7
:100C30000B6801934B680293002303930493037999
:100C40008DF81430261C18BF012640F2312233499A
:100C500000280CBF002006F00100314B98472369A3
:100C600013F4803F22D16FF0130053E0002335E0EE
:100C7000507841EA00210232019201330393E1608E
:100C8000D4F8108040F2222224493046244B984761
:100C900018F0080F38D06FF01200002836DB0398E8
:100CA000AB68984202D3049A93422FD9236913F078
:100CB000010FDBD0A3689BB2029A5AB1511C02917A
:100CC00013709DF81420012A04D90A4601310291BB
:100CD0001B0A1370049B013304930123002BCFD113
:100CE000039B049A9A42CBD3F988226912F0020F2F
:100CF000C6D0019A002AC0D0511C019111789DF8EC
:100D000014000128B4D8B8E70020C6E7236913F41B
:100D1000007FFBD006B0BDE8F08100BF1015400099
:100D2000010A400000207047034B6FF07F425A6079
:100D300005221A60704700BF10E000E008B5014BC3
:100D4000984708BD290D4000080E0DE00D4B6FF0CF
:100D50007F40586098600B4B1B6813F4803FFAD0BB
:100D600001F17F4101311046431EDAB20028EDD176
:100D7000044B59609960034B1B6813F4803FFAD011
:100D8000704700BF10E000E010B5044640F21922A1
:100D90001249003018BF0120114B9847114B9C425B
:100DA00013D003F500739C4211D003F580539C428D
:100DB0000FD003F500739C420DD003F500739C42E5
:100DC00001D0FF2010BD042010BD002010BD012067
:100DD00010BD022010BD032010BD00BF341540001F
:100DE000010A400000080E4010B504464FF4277277
:100DF0000E49003018BF01200D4B984720460D4B7F
:100E00009847002343B140F2A62208490020084B2E
:100E100098470023184610BD03EB43018A0006499A
:100E20008A5C9042F6D00133DBB2EBE73415400028
:100E3000010A4000890D40002815400010B5044605
:100E400040F2B3220D49003018BF01200C4B9847E7
:100E500020460C4B98470C4BC4F8E430AC2323607D
:100E60004FF48073236000EB40008200074B134473
:100E70005B686360F4232362002010BD34154000DA
:100E8000010A4000E90D400000524155281540007C
:100E9000F8B50C46094E0746A9223146003018BF66
:100EA0000120074DA847AA223146201C18BF012067
:100EB000A8473C602046034B9847F8BD34154000D6
:100EC000010A40003D0E400070B50A4E0446F22271
:100ED0003146003018BF0120074DA847246840F272
:100EE000D7223146201C18BF0120A8475023236079
:100EF00070BD00BF34154000010A400038B50C46F3
:100F0000054640F295120449003018BF0120034BFA
:100F100098472B68DC6138BD34154000010A400059
:100F200010B5044640F2A7120449003018BF012052
:100F3000034B984723689869C0B210BD3415400030
:100F4000010A400010B504464FF4D872054900303C
:100F500018BF0120044B984723685869C0F340002C
:100F600010BD00BF34154000010A400010B5044612
:100F700040F2B9120549003018BF0120044B9847D0
:100F800023685869C0F3402010BD00BF34154000ED
:100F9000010A400010B5044640F2CB12054900306A
:100FA00018BF0120044B98472368586900F00100DE
:100FB00010BD00BF34154000010A400000207047FA
:100FC00070B582B005460E46074C01A92046074B76
:100FD00098472046064B9847B2B229460198054BE0
:100FE000984702B070BD00BF38004020D9094000CA
:100FF000AD094000E906400030B587B0124B984774
:101000000DE004210DEB4400104DA84704211048C9
:10101000A84701340B2CF4DD64200E4B98470C4D8F
:1010200004212846094CA04704210A20A047042196
:101030002846A047084B98471420064B9847684617
:10104000064B98470024E5E7D5014000C10F40005A
:101050004C154000C906400009034000B903400098
:1010600070B50D4E0D4CA41BA4100025A54209D14E
:101070000B4E0C4C00F06CFAA41BA4100025A542EA
:1010800005D170BD56F8253098470135EEE756F882
:10109000253098470135F2E75C1540005C154000AB
:1010A0005C154000601540000000000099C500007C
:1010B000ABCE0000320B0000CFD80000561D000060
:1010C00064160000FDD3000007F400009E3100000C
:1010D000AC3A000035FF0000C82C000051E90000C8
:1010E00063E20000FA27000097AD00000E680000E0
:1010F0003C630000A5A6000058750000C1B00000C8
:10110000F3BB00006A7E000090590000099C0000BB
:101110003B970000A25200005F810000C64400001F
:10112000F44F00006D8A00002E5B0000B79E0000A7
:10113000859500001C500000E18300007846000007
:101140004A4D0000D388000029AF0000B06A0000BB
:10115000826100001BA40000E67700007FB200005F
:101160004DB90000D47C0000B9F600002033000027
:10117000123800008BFD0000762E0000EFEB00001F
:10118000DDE0000044250000BE02000027C700008B
:1011900015CC00008C09000071DA0000E81F000087
:1011A000DA14000043D10000C5F300005C360000F3
:1011B0006E3D0000F7F800000A2B000093EE0000DF
:1011C000A1E5000038200000C20700005BC200005B
:1011D00069C90000F00C00000DDF0000941A000047
:1011E000A61100003FD40000525E0000CB9B00001F
:1011F000F9900000605500009D8600000443000047
:1012000036480000AF8D000055AA0000CC6F0000EA
:10121000FE64000067A100009A72000003B700009E
:1012200031BC0000A8790000EBA80000726D00003E
:1012300040660000D9A3000024700000BDB5000086
:101240008FBE0000167B0000EC5C0000759900006A
:1012500047920000DE57000023840000BA410000DE
:10126000884A0000118F00007C050000E5C00000E6
:10127000D7CB00004E0E0000B3DD00002A1800009E
:101280001813000081D600007BF10000E23400005A
:10129000D03F000049FA0000B42900002DEC000006
:1012A0001FE700008622000013A200008A670000EA
:1012B000B86C000021A90000DC7A000045BF0000E6
:1012C00077B40000EE710000145600008D9300000A
:1012D000BF980000265D0000DB8E0000424B00003E
:1012E00070400000E9850000840F00001DCA000066
:1012F0002FC10000B60400004BD70000D21200003E
:10130000E019000079DC000083FB00001A3E0000B9
:1013100028350000B1F000004C230000D5E60000A5
:10132000E7ED00007E2800003DF90000A43C00002D
:10133000963700000FF20000F22100006BE400007D
:1013400059EF0000C02A00003A0D0000A3C80000B9
:1013500091C3000008060000F5D500006C100000E5
:101360005E1B0000C7DE0000AA540000339100009D
:10137000019A0000985F0000658C0000FC490000A5
:10138000CE42000057870000ADA000003465000089
:10139000066E00009FAB000062780000FBBD0000FD
:1013A000C9B6000050730000D65100004F940000F1
:1013B0007D9F0000E45A000019890000804C000065
:1013C000B24700002B820000D1A500004860000059
:1013D0007A6B0000E3AE00001E7D000087B80000BD
:1013E000B5B300002C76000041FC0000D8390000A5
:1013F000EA32000073F700008E24000017E10000BD
:1014000025EA0000BC2F000046080000DFCD0000E8
:10141000EDC600007403000089D000001015000024
:10142000221E0000BBDB0000F80A000061CF0000B4
:1014300053C40000CA01000037D20000AE170000FC
:101440009C1C000005D90000FFFE0000663B000068
:1014500054300000CDF5000030260000A9E3000064
:101460009BE80000022D00006FA70000F66200005C
:10147000C46900005DAC0000A07F000039BA000024
:101480000BB100009274000068530000F196000058
:10149000C39D00005A580000A78B00003E4E00007C
:1014A0000C450000958000004E6F7065310A000009
:1014B0002E2E2F68616C2F7372632F68616C5F69C9
:1014C0006F2E63002E2E2F68616C2F7372632F684E
:1014D000616C5F7370695F6D5F73796E632E63001B
:1014E0002E2E2F68616C2F7372632F68616C5F758D
:1014F000736172745F73796E632E63000100000084
:10150000000000800100000002DC9604FFFF0000E4
:101510002E2E2F68706C2F7370692F68706C5F733C
:1015200070692E6300000000010000000008000048
:10153000F40000002E2E2F68706C2F756172742FCE
:1015400068706C5F756172742E6300000A000000A1
:10155000F8B500BFF8BC08BC9E4670478D0140003E
:10156000F8B500BFF8BC08BC9E4670476901400052
:0400000500400000B7
:00000001FF
