:020000040040BA
:10000000C0084020D9024000D5024000D50240007F
:10001000D5024000D5024000D5024000000000009B
:10002000000000000000000000000000D5024000B9
:10003000D502400000000000D5024000D50240007B
:10004000D5024000D5024000D5024000D502400054
:10005000D5024000D5024000D5024000D502400044
:10006000D502400000000000D5024000D50240004B
:10007000D5024000D5024000D5024000D502400024
:10008000D5024000D5024000D5024000D502400014
:10009000D5024000D5024000D5024000D502400004
:1000A000D5024000D5024000D5024000D5024000F4
:1000B000D5024000D5024000D5024000D5024000E4
:1000C000D5024000D5024000D5024000D5024000D4
:1000D000D5024000D5024000D5024000D5024000C4
:1000E000D5024000D5024000D5024000D5024000B4
:1000F000D5024000D5024000D5024000D5024000A4
:10010000D5024000D5024000D5024000D502400093
:10011000D5024000D50240000000000000000000B1
:10012000D5024000D5024000D5024000D502400073
:10013000D5024000D5024000D5024000D502400063
:10014000D5024000D5024000D5024000D502400053
:10015000D5024000D5024000D5024000D502400043
:10016000D5024000D502400010B5054C237833B9C4
:10017000044B13B10448AFF300800123237010BD7A
:100180006800402000000000FC1840000C4B43B108
:100190000C480D4910B5AFF300800C48036823B933
:1001A00010BD0A48036833B97047094B002BF7D0DC
:1001B000BDE810401847064B002BF5D0184700BF8C
:1001C00000000000FC1840006C004020FC184000BB
:1001D0000000000008B5014B984708BD8D044000A1
:1001E00030B40022102409E0835C83EAD413DBB22C
:1001F000054D55F8233083EA042401328A42F3DBAB
:10020000600080B230BC7047D4134000002010E082
:100210005200013B002B08DD12F4804FF8D0084952
:10022000B1F9001081EA4202F3E7064B23F81020EF
:100230000130FF2802DCC2010823EBE7704700BF52
:10024000000040209400402030B583B004460D46A5
:1002500001A90548054B9847AAB221460198044BCD
:10026000984703B030BD00BF9402402015074000FE
:1002700011054000F0B585B007460D460E4C03A9A8
:1002800020460E4B984720460D4B984728460D4B6D
:10029000984706462A46FF210B4B9847029501973F
:1002A00004A941F8106D2046084B98473046084B8A
:1002B000984705B0F0BD00BF9402402015074000EC
:1002C000B105400011124000471240005D06400099
:1002D00021124000FEE7000008B5104B104A9A4278
:1002E00009D00E4B0E4A03E0116819600433043242
:1002F0000C498B42F8D30C4B02E000221A60043305
:100300000A4A9342F9D30A4A0A4B23F07F039360C7
:10031000094B9847094B9847FEE700BF0000402073
:10032000FC1840006800402068004020BC024020CB
:1003300000ED00E000004000C9114000F91040004D
:10034000164B1A6F22F080621A675A6F42F0806271
:100350005A674FF080625A601A6F22F000621A6783
:100360005A6F42F000625A674FF000625A601A6F8B
:1003700022F080721A675A6F42F080725A674FF00B
:1003800080725A604FF080521A604FF0007119600D
:100390001A61196119631A63704700BF00120E4099
:1003A000054BD3F8083113F4806F04D14FF4806209
:1003B000014BC3F80021704700060E4010B5084BF2
:1003C0009847084B9847084C01462046074B9847EA
:1003D00007492046074B9847074B984710BD00BF79
:1003E000A1034000B90C40009402402041054000A8
:1003F00000800540610540004103400008B5024807
:10040000024B984708BD00BF10E000E0DD0440004B
:100410000A4B1A6F22F020021A675A6F42F020022C
:100420005A6720225A601A6F22F040021A675A6FE8
:1004300042F040025A6740225A607047000E0E4058
:10044000044B9B6913F4807F03D14FF48072014BFE
:100450001A61704700060E4008B5064B9847064BD8
:100460009847024605490648064B9847064B984769
:1004700008BD00BF41044000510F4000000A0E407B
:10048000AC024020110840001104400008B5074BA1
:100490009847074A536843F400435360054B984715
:1004A000054B9847054B984708BD00BFE50840003D
:1004B00050180E40BD034000FD03400059044000A9
:1004C000EFF31083036072B6BFF35F8F7047BFF323
:1004D0005F8F036883F310887047000008B5024BF4
:1004E0001860024B984708BD84004020D10C4000A2
:1004F00010B5044B1C68044B984701462046034B3B
:10050000984710BD84004020D9084000DD0C400011
:1005100070B5164604460D46002818BF002914BFC2
:100520000120002034220449044B984723683246B6
:1005300029462046984770BDD4174000AD084000BA
:1005400038B50D46044639220349003018BF012052
:10055000024B9847256038BDE8174000AD084000C1
:1005600038B504460D46002818BF002914BF0120E5
:100570000020402209490A4B9847204640F8045F72
:100580002946084B9847002807DB4FF40043A38215
:10059000054B2361054BE360002038BDE8174000A0
:1005A000AD084000410A4000D90640009D064000C9
:1005B00010B5044657220549003018BF0120044BEE
:1005C0009847201D034B984710BD00BFE817400017
:1005D000AD084000E90A400038B50D4604466322E4
:1005E0000549003018BF0120044B98472946201DBB
:1005F000034B984738BD00BFE8174000AD084000E6
:100600001D0B400038B50D4604466F2205490030E9
:1006100018BF0120044B98472946201D034B9847DB
:1006200038BD00BFE8174000AD084000810B400016
:1006300038B50D46044675220549003018BF012023
:10064000044B98472946201D034B984738BD00BFEF
:10065000E8174000AD084000550B400030B585B0AC
:1006600005460C46002818BF002914BF01200020B1
:10067000B3220749074B98472368019363680293A5
:10068000A368039301A9281D034B984705B030BD0B
:10069000E8174000AD084000B90B400070B584B0C9
:1006A0000E4615460446A3220849003018BF012013
:1006B000074B9847002302930196039501A9A4F1E3
:1006C0000C00044B984704B070BD00BFE817400011
:1006D000AD0840005D06400070B584B00E4615467A
:1006E000044687220849003018BF0120074B98476D
:1006F000029600230193039501A9A4F10C00044B79
:10070000984704B070BD00BFE8174000AD08400036
:100710005D06400038B504460D46002818BF002984
:1007200014BF01200020BD220349044B98470C341C
:100730002C60002038BD00BFE8174000AD08400025
:10074000F8B5164605460F46002818BF002902D006
:100750000ABB002000E00020F1221049104B98470E
:1007600005F1080420460F4B98470028F8D00025D3
:10077000795D20460C4B984720460A4B9847002845
:10078000FAD00135B542F3D32046084B98470028EC
:10079000FAD02846F8BD0120DEE700BF041840006B
:1007A000AD084000D90E4000910E4000010F4000FE
:1007B0002DE9F041174605468846002818BF002954
:1007C00002D0D2B9002000E000204FF486720C491C
:1007D0000C4B9847002605F1080420460A4B984721
:1007E0000028F8D02046094B984708F80600013643
:1007F000BE42F0D33046BDE8F0810120E5E700BFFE
:1008000004184000AD084000290F4000B50E40001C
:1008100038B504460D46002818BF002914BF012032
:10082000002034220749084B9847294604F1080064
:10083000064B9847034618B9054A6260054A22608C
:10084000184638BD04184000AD084000250E400091
:10085000B10740004107400010B504465322064945
:10086000003018BF0120054B984704F10800044BE5
:100870009847002010BD00BF04184000AD0840009C
:100880005D0E400038B505460C46002818BF00290B
:1008900014BF0120002069220249034B98472560BC
:1008A000002038BD04184000AD08400000B900BE6B
:1008B000704700000346064A126822B1044A1068D5
:1008C0000344136070470349014A1160F6E700BF13
:1008D00088004020C00840204FF4967303FB00F0CE
:1008E0007047000000B583B001A80E4B98470E4A30
:1008F000D2F8883043F47003C2F88830BFF34F8FCA
:10090000BFF36F8F01A8094B9847094A136823F476
:10091000706343F4C0631360064B984703B05DF8FF
:1009200004FB00BFC104400000ED00E0CF04400024
:10093000000C0E40D50940000E490A6A22F002025E
:100940000D4B13430B620B4B9B6E13F0010FFAD050
:10095000084B196A094A0A431A62996A084A0A4006
:100960009A62084A9A62034B9B6E13F0020FFAD008
:10097000704700BF00060E40013E370000003701FF
:10098000FFFF00F8013F1820114A136B23F070039A
:1009900013630F4B9B6E13F0080FFAD00C4A136BC6
:1009A00023F4407343F480731363094B9B6E13F07D
:1009B000080FFAD0064A136B23F0030343F0020337
:1009C0001363034B9B6E13F0080FFAD0704700BF00
:1009D00000060E4008B5024B9847024B984708BDE9
:1009E0003909400089094000012303600020704755
:1009F000036B23F47F43090289B20B430363002096
:100A0000704710B4036B23F0F0030C01E4B22343EE
:100A1000036329B10223137000205DF8044B704773
:100A200001231370F8E70000044B0344C3F30743AA
:100A3000052B01D000207047012070470080FFBFC8
:100A400070B506460C460846204B984700233BB33A
:100A500000254FF49A721E49002E18BF002C14BFB7
:100A6000012000201B4B984755B3236913F4803FA6
:100A700029D18023236034606A68174B13402360B8
:100A8000AB68164A1A40164B13436360EB68236346
:100A90002B8AF380EB6803F0F0033371002070BD04
:100AA00003EB83018A000F498A5C904202D0013334
:100AB000DBB2CCE703EB8305AB000D461D44C8E772
:100AC0006FF00C0070BD6FF0100070BD290A40007F
:100AD00034184000AD0840007CFFFFFE6FFFF1FFBF
:100AE00010000E002018400010B5044668B10368DD
:100AF0004BB101204FF4B9720549064B9847206865
:100B0000054B984710BD0020F4E70020F2E700BF36
:100B100034184000AD084000E909400038B50D46E2
:100B2000044670B1036853B1012040F2AF12064988
:100B3000064B984729462068054B984738BD00204A
:100B4000F3E70020F1E700BF34184000AD08400093
:100B5000F109400008B560B1036843B1012040F2DB
:100B6000BD120549054B98476FF01A0008BD0020DB
:100B7000F5E70020F3E700BF34184000AD0840005F
:100B800038B50D46044678B103685BB1012040F2E8
:100B9000CD120649064B9847221D29462068054B71
:100BA000984738BD0020F2E70020F0E734184000F5
:100BB000AD084000030A40002DE9F04186B0074629
:100BC0000D4604680B6801934B680293002303935E
:100BD000049303798DF81430261C18BF012640F2C7
:100BE0003122334900280CBF002006F00100314BB0
:100BF0009847236913F4803F22D16FF0130053E02C
:100C0000002335E0507841EA00210232019201339D
:100C10000393E160D4F8108040F222222449304648
:100C2000244B984718F0080F38D06FF012000028B6
:100C300036DB0398AB68984202D3049A93422FD9CB
:100C4000236913F0010FDBD0A3689BB2029A5AB15B
:100C5000511C029113709DF81420012A04D90A46F0
:100C6000013102911B0A1370049B01330493012389
:100C7000002BCFD1039B049A9A42CBD3F9882269E7
:100C800012F0020FC6D0019A002AC0D0511C019167
:100C900011789DF814000128B4D8B8E70020C6E701
:100CA000236913F4007FFBD006B0BDE8F08100BFDC
:100CB00034184000AD08400000207047034B6FF02F
:100CC0007F425A6005221A60704700BF10E000E0C2
:100CD00008B5014B984708BDBD0C4000080E0DE05B
:100CE0000D4B6FF07F40586098600B4B1B6813F4FE
:100CF000803FFAD001F17F4101311046431EDAB244
:100D00000028EDD1044B59609960034B1B6813F424
:100D1000803FFAD0704700BF10E000E010B50446F5
:100D200040F219221249003018BF0120114B984798
:100D3000114B9C4213D003F500739C4211D003F574
:100D400080539C420FD003F500739C420DD003F5F5
:100D500000739C4201D0FF2010BD042010BD002074
:100D600010BD012010BD022010BD032010BD00BF2A
:100D700058184000AD08400000080E4010B5044669
:100D80004FF427720E49003018BF01200D4B9847D1
:100D900020460D4B9847002343B140F2A622084954
:100DA0000020084B98470023184610BD03EB430171
:100DB0008A0006498A5C9042F6D00133DBB2EBE749
:100DC00058184000AD0840001D0D40004C18400070
:100DD00010B5044640F2B3220D49003018BF01207F
:100DE0000C4B984720460C4B98470C4BC4F8E4300A
:100DF000AC2323604FF48073236000EB400082003B
:100E0000074B13445B686360F4232362002010BD2A
:100E100058184000AD0840007D0D4000005241557B
:100E20004C184000F8B50C46094E0746A922314639
:100E3000003018BF0120074DA847AA223146201CC8
:100E400018BF0120A8473C602046034B9847F8BDD7
:100E500058184000AD084000D10D400070B50A4E52
:100E60000446F2223146003018BF0120074DA84742
:100E7000246840F2D7223146201C18BF0120A84721
:100E80005023236070BD00BF58184000AD084000DB
:100E900038B50C46054640F295120449003018BF9B
:100EA0000120034B98472B68DC6138BD581840007F
:100EB000AD08400010B5044640F2A71204490030C6
:100EC00018BF0120034B984723689869C0B210BD32
:100ED00058184000AD08400010B504464FF4D872D1
:100EE0000549003018BF0120044B98472368586912
:100EF000C0F3400010BD00BF58184000AD084000CE
:100F000010B5044640F2B9120549003018BF01205F
:100F1000044B984723685869C0F3402010BD00BFB8
:100F200058184000AD08400010B5044640F2CB12FE
:100F30000549003018BF0120044B984723685869C1
:100F400000F0010010BD00BF58184000AD0840007F
:100F5000002070472DE9F04383B00F461446030A82
:100F60008DF80430003018BF01208DF805000221F3
:100F700001A8174DA847030A8DF806308DF8070021
:100F800021463846A847C0F30729C6B204F1020833
:100F90004046104B98470546224639460E4B984727
:100FA00005F8049001342E550C4C4FF00076666322
:100FB00004210DEB01000A4FB84741462846B847C7
:100FC00026632846074B984703B0BDE8F08300BF6F
:100FD000E1014000111240003112400000120E40A9
:100FE00049024000211240002DE9F04383B08946B8
:100FF0001646030A8DF804308DF80500022101A879
:10100000154B9847030A8DF806308DF80700B51C7C
:101010002846124B984704462A460021104B984711
:10102000104F4FF00078C7F8348004210DEB010019
:101030000D4B9847294620460C4B9847C7F83080FF
:101040003246214648460A4B98472046094B984766
:1010500003B0BDE8F08300BFE10140001112400081
:101060004712400000120E40490240007502400045
:10107000311240002112400070B582B005460E4684
:10108000074C01A92046074B98472046064B984736
:10109000B2B229460198054B984702B070BD00BF17
:1010A000AC0240208508400059084000110540006E
:1010B00070B582B005460E460A4C01A920460A4B7F
:1010C00098472046094B984731462846084B984791
:1010D00002A90A2301F8083D01220198054B98470F
:1010E00002B070BDAC0240208508400059084000A5
:1010F000791040001105400000B589B0254B984794
:10110000254B9847254C2046254B984700212046E3
:10111000244B984700212046234B984723492046DB
:10112000234B9847002204238DF81830FA238DF8BA
:1011300019308DF81A308DF81B308DF81C308DF871
:101140001D300492ADF8142001248DF81040194A86
:1011500001AB07CA03C323F8022B120C1A700B2130
:1011600001A8154B9847062206A92046134B98471D
:10117000062204A90220124B9847062104A80E4B10
:10118000984700230493ADF8143040F2DC500D4B27
:101190009847EDE7D50140000D0240009402402041
:1011A000B10540003106400005064000A086010060
:1011B000D905400070184000B1104000550F4000A4
:1011C000E90F4000F104400070B50D4E0D4CA41B1A
:1011D000A4100025A54209D10B4E0C4C00F07EFB5B
:1011E000A41BA4100025A54205D170BD56F82530DA
:1011F00098470135EEE756F8253098470135F2E774
:10120000E8184000E8184000E8184000EC184000DA
:10121000024B0146186800F06DB800BF0400402082
:10122000024B0146186800F017B800BF04004020C8
:1012300010B5431E0A44914200D110BD11F8014B74
:1012400003F8014FF7E702440346934200D1704789
:1012500003F8011BF9E7000038B50546002945D021
:1012600051F8043C0C1F002BB8BFE41800F0B0F894
:101270001F4A1368104633B9636014602846BDE8FE
:10128000384000F0A6B8A3420CD9216862189342F6
:1012900004BF1A685B68636004BF52182260046070
:1012A000ECE713465A680AB1A242FAD919685818ED
:1012B000A0420BD120680144581882421960DDD148
:1012C000106852685A6001441960D7E702D90C23AC
:1012D0002B60D3E7206821188A4204BF1168526846
:1012E000626004BF091821605C60C7E738BD00BFB9
:1012F0008C00402070B5CD1C25F0030508350C2D61
:1013000038BF0C25002D064601DBA94203D90C236A
:101310003360002070BD00F05BF8234A146821465A
:1013200091B9224C23681BB9304600F041F8206087
:101330002946304600F03CF8431C26D10C2333608C
:10134000304600F046F8E4E70B685B1B1AD40B2B21
:101350000FD90B60CD50CC18304600F03AF804F1AC
:101360000B00231D20F00700C31A1BD05A42E25085
:1013700070BD8C420DBF63684B686360136018BF1B
:101380000C46E9E70C464968CAE7C41C24F003048C
:10139000A04205D0211A304600F00AF80130CDD025
:1013A0002560D9E770BD00BF8C0040209000402030
:1013B00038B5064C0023054608462360FFF77AFA45
:1013C000431C02D1236803B12B6038BDB802402012
:1013D000704770470000000099C50000ABCE0000C8
:1013E000320B0000CFD80000561D0000641600002C
:1013F000FDD3000007F400009E310000AC3A00006D
:1014000035FF0000C82C000051E9000063E2000035
:10141000FA27000097AD00000E6800003C63000052
:10142000A5A6000058750000C1B00000F3BB000085
:101430006A7E000090590000099C00003B97000064
:10144000A25200005F810000C6440000F44F00007B
:101450006D8A00002E5B0000B79E0000859500009D
:101460001C500000E1830000784600004A4D000057
:10147000D388000029AF0000B06A0000826100003C
:101480001BA40000E67700007FB200004DB9000009
:10149000D47C0000B9F600002033000012380000B0
:1014A0008BFD0000762E0000EFEB0000DDE0000079
:1014B00044250000BE02000027C7000015CC000034
:1014C0008C09000071DA0000E81F0000DA14000047
:1014D00043D10000C5F300005C3600006E3D000003
:1014E000F7F800000A2B000093EE0000A1E50000D1
:1014F00038200000C20700005BC2000069C900007C
:10150000F00C00000DDF0000941A0000A61100008E
:101510003FD40000525E0000CB9B0000F990000019
:10152000605500009D86000004430000364800001E
:10153000AF8D000055AA0000CC6F0000FE640000D3
:1015400067A100009A72000003B7000031BC0000E0
:10155000A8790000EBA80000726D00004066000052
:10156000D9A3000024700000BDB500008FBE0000AC
:10157000167B0000EC5C00007599000047920000AB
:10158000DE57000023840000BA410000884A0000B2
:10159000118F00007C050000E5C00000D7CB0000E3
:1015A0004E0E0000B3DD00002A18000018130000E2
:1015B00081D600007BF10000E2340000D03F000043
:1015C00049FA0000B42900002DEC00001FE70000DC
:1015D0008622000013A200008A670000B86C000099
:1015E00021A90000DC7A000045BF000077B40000AC
:1015F000EE710000145600008D930000BF980000AB
:10160000265D0000DB8E0000424B000070400000B1
:10161000E9850000840F00001DCA00002FC10000F2
:10162000B60400004BD70000D2120000E019000001
:1016300079DC000083FB00001A3E00002835000022
:10164000B1F000004C230000D5E60000E7ED0000FB
:101650007E2800003DF90000A43C00009637000001
:101660000FF20000F22100006BE4000059EF0000CF
:10167000C02A00003A0D0000A3C8000091C300007A
:1016800008060000F5D500006C1000005E1B00008D
:10169000C7DE0000AA54000033910000019A000048
:1016A000985F0000658C0000FC490000CE420000FD
:1016B00057870000ADA0000034650000066E0000F2
:1016C0009FAB000062780000FBBD0000C9B60000BF
:1016D00050730000D65100004F9400007D9F000021
:1016E000E45A000019890000804C0000B247000055
:1016F0002B820000D1A50000486000007A6B00003A
:10170000E3AE00001E7D000087B80000B5B3000006
:101710002C76000041FC0000D8390000EA320000BD
:1017200073F700008E24000017E1000025EA000096
:10173000BC2F000046080000DFCD0000EDC6000011
:101740007403000089D0000010150000221E000064
:10175000BBDB0000F80A000061CF000053C40000AA
:10176000CA01000037D20000AE1700009C1C000028
:1017700005D90000FFFE0000663B00005430000069
:10178000CDF5000030260000A9E300009BE8000032
:10179000022D00006FA70000F6620000C46900007F
:1017A0005DAC0000A07F000039BA00000BB1000062
:1017B0009274000068530000F1960000C39D000081
:1017C0005A580000A78B00003E4E00000C45000058
:1017D000958000002E2E2F68616C2F7372632F6826
:1017E000616C5F696F2E63002E2E2F68616C2F7302
:1017F00072632F68616C5F7370695F6D5F73796E80
:10180000632E63002E2E2F68616C2F7372632F6816
:10181000616C5F75736172745F73796E632E6300C0
:1018200001000000000000800100000002DC9604BE
:10183000FFFF00002E2E2F68706C2F7370692F68C9
:10184000706C5F7370692E6300000000010000007F
:1018500000080000F40000002E2E2F68706C2F7519
:101860006172742F68706C5F756172742E63000012
:1018700048656C6C6F20776F726C6400000000002C
:101880000000000000000000000000000000000058
:101890000000000000000000000000000000000048
:1018A0000000000000000000000000000000000038
:1018B0000000000000000000000000000000000028
:1018C0000000000000000000000000000000000018
:1018D000000000000000000000000000F8B500BF9C
:1018E000F8BC08BC9E4670478D014000F8B500BFAB
:0C18F000F8BC08BC9E467047690140002F
:1018FC009945000008004020000000009C184000A2
:10190C00BC1840007C1840000000000000000000E3
:10191C0000000000000000000000000000000000BB
:10192C0000000000000000000000000000000000AB
:10193C00000000000000000000000000000000009B
:10194C00000000000000000000000000000000008B
:08195C00000000000000000083
:0400000500400000B7
:00000001FF
